{
  "_format": "hh-sol-artifact-1",
  "contractName": "MerkleAirdrop",
  "sourceName": "contracts/MerkleAirdrop.sol",
  "abi": [
    {
      "inputs": [
        {
          "internalType": "address",
          "name": "_token",
          "type": "address"
        },
        {
          "internalType": "bytes32",
          "name": "_merkleRoot",
          "type": "bytes32"
        }
      ],
      "stateMutability": "nonpayable",
      "type": "constructor"
    },
    {
      "inputs": [
        {
          "internalType": "address",
          "name": "owner",
          "type": "address"
        }
      ],
      "name": "OwnableInvalidOwner",
      "type": "error"
    },
    {
      "inputs": [
        {
          "internalType": "address",
          "name": "account",
          "type": "address"
        }
      ],
      "name": "OwnableUnauthorizedAccount",
      "type": "error"
    },
    {
      "anonymous": false,
      "inputs": [
        {
          "indexed": true,
          "internalType": "address",
          "name": "claimant",
          "type": "address"
        },
        {
          "indexed": false,
          "internalType": "uint256",
          "name": "amount",
          "type": "uint256"
        }
      ],
      "name": "AirdropClaimed",
      "type": "event"
    },
    {
      "anonymous": false,
      "inputs": [],
      "name": "ClaimSuccessful",
      "type": "event"
    },
    {
      "anonymous": false,
      "inputs": [
        {
          "indexed": true,
          "internalType": "address",
          "name": "previousOwner",
          "type": "address"
        },
        {
          "indexed": true,
          "internalType": "address",
          "name": "newOwner",
          "type": "address"
        }
      ],
      "name": "OwnershipTransferred",
      "type": "event"
    },
    {
      "inputs": [
        {
          "internalType": "bytes32[]",
          "name": "proof",
          "type": "bytes32[]"
        },
        {
          "internalType": "uint256",
          "name": "amount",
          "type": "uint256"
        }
      ],
      "name": "ClaimAirdrop",
      "outputs": [],
      "stateMutability": "nonpayable",
      "type": "function"
    },
    {
      "inputs": [
        {
          "internalType": "address",
          "name": "",
          "type": "address"
        }
      ],
      "name": "hasClaimed",
      "outputs": [
        {
          "internalType": "bool",
          "name": "",
          "type": "bool"
        }
      ],
      "stateMutability": "view",
      "type": "function"
    },
    {
      "inputs": [],
      "name": "merkleRoot",
      "outputs": [
        {
          "internalType": "bytes32",
          "name": "",
          "type": "bytes32"
        }
      ],
      "stateMutability": "view",
      "type": "function"
    },
    {
      "inputs": [],
      "name": "owner",
      "outputs": [
        {
          "internalType": "address",
          "name": "",
          "type": "address"
        }
      ],
      "stateMutability": "view",
      "type": "function"
    },
    {
      "inputs": [],
      "name": "renounceOwnership",
      "outputs": [],
      "stateMutability": "nonpayable",
      "type": "function"
    },
    {
      "inputs": [],
      "name": "token",
      "outputs": [
        {
          "internalType": "contract IERC20",
          "name": "",
          "type": "address"
        }
      ],
      "stateMutability": "view",
      "type": "function"
    },
    {
      "inputs": [
        {
          "internalType": "address",
          "name": "newOwner",
          "type": "address"
        }
      ],
      "name": "transferOwnership",
      "outputs": [],
      "stateMutability": "nonpayable",
      "type": "function"
    },
    {
      "inputs": [],
      "name": "withdrawRemainingTokens",
      "outputs": [],
      "stateMutability": "nonpayable",
      "type": "function"
    }
  ],
  "bytecode": "0x60806040523480156200001157600080fd5b506040516200121c3803806200121c833981810160405281019062000037919062000278565b33600073ffffffffffffffffffffffffffffffffffffffff168173ffffffffffffffffffffffffffffffffffffffff1603620000ad5760006040517f1e4fbdf7000000000000000000000000000000000000000000000000000000008152600401620000a49190620002d0565b60405180910390fd5b620000be816200010f60201b60201c565b5081600260006101000a81548173ffffffffffffffffffffffffffffffffffffffff021916908373ffffffffffffffffffffffffffffffffffffffff160217905550806001819055505050620002ed565b60008060009054906101000a900473ffffffffffffffffffffffffffffffffffffffff169050816000806101000a81548173ffffffffffffffffffffffffffffffffffffffff021916908373ffffffffffffffffffffffffffffffffffffffff1602179055508173ffffffffffffffffffffffffffffffffffffffff168173ffffffffffffffffffffffffffffffffffffffff167f8be0079c531659141344cd1fd0a4f28419497f9722a3daafe3b4186f6b6457e060405160405180910390a35050565b600080fd5b600073ffffffffffffffffffffffffffffffffffffffff82169050919050565b60006200020582620001d8565b9050919050565b6200021781620001f8565b81146200022357600080fd5b50565b60008151905062000237816200020c565b92915050565b6000819050919050565b62000252816200023d565b81146200025e57600080fd5b50565b600081519050620002728162000247565b92915050565b60008060408385031215620002925762000291620001d3565b5b6000620002a28582860162000226565b9250506020620002b58582860162000261565b9150509250929050565b620002ca81620001f8565b82525050565b6000602082019050620002e76000830184620002bf565b92915050565b610f1f80620002fd6000396000f3fe608060405234801561001057600080fd5b50600436106100885760003560e01c80638da5cb5b1161005b5780638da5cb5b146100ef578063f2fde38b1461010d578063fa27eeb514610129578063fc0c546a1461014557610088565b80632eb4a7ab1461008d578063715018a6146100ab57806373b2e80e146100b55780638afbf669146100e5575b600080fd5b610095610163565b6040516100a29190610890565b60405180910390f35b6100b3610169565b005b6100cf60048036038101906100ca919061091d565b61017d565b6040516100dc9190610965565b60405180910390f35b6100ed61019d565b005b6100f761032e565b604051610104919061098f565b60405180910390f35b6101276004803603810190610122919061091d565b610357565b005b610143600480360381019061013e9190610b65565b6103dd565b005b61014d610655565b60405161015a9190610c20565b60405180910390f35b60015481565b61017161067b565b61017b6000610702565b565b60036020528060005260406000206000915054906101000a900460ff1681565b6101a561067b565b6000600260009054906101000a900473ffffffffffffffffffffffffffffffffffffffff1673ffffffffffffffffffffffffffffffffffffffff166370a08231306040518263ffffffff1660e01b8152600401610202919061098f565b602060405180830381865afa15801561021f573d6000803e3d6000fd5b505050506040513d601f19601f820116820180604052508101906102439190610c50565b9050600260009054906101000a900473ffffffffffffffffffffffffffffffffffffffff1673ffffffffffffffffffffffffffffffffffffffff1663a9059cbb61028b61032e565b836040518363ffffffff1660e01b81526004016102a9929190610c8c565b6020604051808303816000875af11580156102c8573d6000803e3d6000fd5b505050506040513d601f19601f820116820180604052508101906102ec9190610ce1565b61032b576040517f08c379a000000000000000000000000000000000000000000000000000000000815260040161032290610d6b565b60405180910390fd5b50565b60008060009054906101000a900473ffffffffffffffffffffffffffffffffffffffff16905090565b61035f61067b565b600073ffffffffffffffffffffffffffffffffffffffff168173ffffffffffffffffffffffffffffffffffffffff16036103d15760006040517f1e4fbdf70000000000000000000000000000000000000000000000000000000081526004016103c8919061098f565b60405180910390fd5b6103da81610702565b50565b600360003373ffffffffffffffffffffffffffffffffffffffff1673ffffffffffffffffffffffffffffffffffffffff16815260200190815260200160002060009054906101000a900460ff161561046a576040517f08c379a000000000000000000000000000000000000000000000000000000000815260040161046190610dd7565b60405180910390fd5b6000338260405160200161047f929190610c8c565b604051602081830303815290604052805190602001206040516020016104a59190610e18565b6040516020818303038152906040528051906020012090506104ca83600154836107c6565b610509576040517f08c379a000000000000000000000000000000000000000000000000000000000815260040161050090610e7f565b60405180910390fd5b6001600360003373ffffffffffffffffffffffffffffffffffffffff1673ffffffffffffffffffffffffffffffffffffffff16815260200190815260200160002060006101000a81548160ff021916908315150217905550600260009054906101000a900473ffffffffffffffffffffffffffffffffffffffff1673ffffffffffffffffffffffffffffffffffffffff1663a9059cbb33846040518363ffffffff1660e01b81526004016105be929190610c8c565b6020604051808303816000875af11580156105dd573d6000803e3d6000fd5b505050506040513d601f19601f820116820180604052508101906106019190610ce1565b503373ffffffffffffffffffffffffffffffffffffffff167f650e45f04ef8a0c267b2f78d983913f69ae3a353b2b32de5429307522be0ab55836040516106489190610e9f565b60405180910390a2505050565b600260009054906101000a900473ffffffffffffffffffffffffffffffffffffffff1681565b6106836107dd565b73ffffffffffffffffffffffffffffffffffffffff166106a161032e565b73ffffffffffffffffffffffffffffffffffffffff1614610700576106c46107dd565b6040517f118cdaa70000000000000000000000000000000000000000000000000000000081526004016106f7919061098f565b60405180910390fd5b565b60008060009054906101000a900473ffffffffffffffffffffffffffffffffffffffff169050816000806101000a81548173ffffffffffffffffffffffffffffffffffffffff021916908373ffffffffffffffffffffffffffffffffffffffff1602179055508173ffffffffffffffffffffffffffffffffffffffff168173ffffffffffffffffffffffffffffffffffffffff167f8be0079c531659141344cd1fd0a4f28419497f9722a3daafe3b4186f6b6457e060405160405180910390a35050565b6000826107d385846107e5565b1490509392505050565b600033905090565b60008082905060005b845181101561082a5761081b8286838151811061080e5761080d610eba565b5b6020026020010151610835565b915080806001019150506107ee565b508091505092915050565b600081831061084d576108488284610860565b610858565b6108578383610860565b5b905092915050565b600082600052816020526040600020905092915050565b6000819050919050565b61088a81610877565b82525050565b60006020820190506108a56000830184610881565b92915050565b6000604051905090565b600080fd5b600080fd5b600073ffffffffffffffffffffffffffffffffffffffff82169050919050565b60006108ea826108bf565b9050919050565b6108fa816108df565b811461090557600080fd5b50565b600081359050610917816108f1565b92915050565b600060208284031215610933576109326108b5565b5b600061094184828501610908565b91505092915050565b60008115159050919050565b61095f8161094a565b82525050565b600060208201905061097a6000830184610956565b92915050565b610989816108df565b82525050565b60006020820190506109a46000830184610980565b92915050565b600080fd5b6000601f19601f8301169050919050565b7f4e487b7100000000000000000000000000000000000000000000000000000000600052604160045260246000fd5b6109f8826109af565b810181811067ffffffffffffffff82111715610a1757610a166109c0565b5b80604052505050565b6000610a2a6108ab565b9050610a3682826109ef565b919050565b600067ffffffffffffffff821115610a5657610a556109c0565b5b602082029050602081019050919050565b600080fd5b610a7581610877565b8114610a8057600080fd5b50565b600081359050610a9281610a6c565b92915050565b6000610aab610aa684610a3b565b610a20565b90508083825260208201905060208402830185811115610ace57610acd610a67565b5b835b81811015610af75780610ae38882610a83565b845260208401935050602081019050610ad0565b5050509392505050565b600082601f830112610b1657610b156109aa565b5b8135610b26848260208601610a98565b91505092915050565b6000819050919050565b610b4281610b2f565b8114610b4d57600080fd5b50565b600081359050610b5f81610b39565b92915050565b60008060408385031215610b7c57610b7b6108b5565b5b600083013567ffffffffffffffff811115610b9a57610b996108ba565b5b610ba685828601610b01565b9250506020610bb785828601610b50565b9150509250929050565b6000819050919050565b6000610be6610be1610bdc846108bf565b610bc1565b6108bf565b9050919050565b6000610bf882610bcb565b9050919050565b6000610c0a82610bed565b9050919050565b610c1a81610bff565b82525050565b6000602082019050610c356000830184610c11565b92915050565b600081519050610c4a81610b39565b92915050565b600060208284031215610c6657610c656108b5565b5b6000610c7484828501610c3b565b91505092915050565b610c8681610b2f565b82525050565b6000604082019050610ca16000830185610980565b610cae6020830184610c7d565b9392505050565b610cbe8161094a565b8114610cc957600080fd5b50565b600081519050610cdb81610cb5565b92915050565b600060208284031215610cf757610cf66108b5565b5b6000610d0584828501610ccc565b91505092915050565b600082825260208201905092915050565b7f546f6b656e207472616e73666572206661696c65640000000000000000000000600082015250565b6000610d55601583610d0e565b9150610d6082610d1f565b602082019050919050565b60006020820190508181036000830152610d8481610d48565b9050919050565b7f416464726573732068617320616c726561647920636c61696d65640000000000600082015250565b6000610dc1601b83610d0e565b9150610dcc82610d8b565b602082019050919050565b60006020820190508181036000830152610df081610db4565b9050919050565b6000819050919050565b610e12610e0d82610877565b610df7565b82525050565b6000610e248284610e01565b60208201915081905092915050565b7f496e76616c69642070726f6f6600000000000000000000000000000000000000600082015250565b6000610e69600d83610d0e565b9150610e7482610e33565b602082019050919050565b60006020820190508181036000830152610e9881610e5c565b9050919050565b6000602082019050610eb46000830184610c7d565b92915050565b7f4e487b7100000000000000000000000000000000000000000000000000000000600052603260045260246000fdfea264697066735822122086af8c6347af229ce40049a4128c04e536927a20245406832b94802d6d01f65664736f6c63430008180033",
  "linkReferences": {},
  "deployedLinkReferences": {}
}